{
  "address": "0x4682390c7Be9f4c833533dFd7E0E68356cd96909",
  "abi": [
    {
      "inputs": [
        {
          "internalType": "address",
          "name": "vrfCoordinatorV2",
          "type": "address"
        },
        {
          "internalType": "uint64",
          "name": "subscriptionId",
          "type": "uint64"
        },
        {
          "internalType": "bytes32",
          "name": "gasLane",
          "type": "bytes32"
        },
        {
          "internalType": "uint32",
          "name": "callbackGasLimit",
          "type": "uint32"
        }
      ],
      "stateMutability": "nonpayable",
      "type": "constructor"
    },
    {
      "inputs": [
        {
          "internalType": "address",
          "name": "have",
          "type": "address"
        },
        {
          "internalType": "address",
          "name": "want",
          "type": "address"
        }
      ],
      "name": "OnlyCoordinatorCanFulfill",
      "type": "error"
    },
    {
      "inputs": [
        {
          "internalType": "address",
          "name": "x",
          "type": "address"
        }
      ],
      "name": "_addressToString",
      "outputs": [
        {
          "internalType": "string",
          "name": "",
          "type": "string"
        }
      ],
      "stateMutability": "pure",
      "type": "function"
    },
    {
      "inputs": [
        {
          "internalType": "bytes1",
          "name": "b",
          "type": "bytes1"
        }
      ],
      "name": "char",
      "outputs": [
        {
          "internalType": "bytes1",
          "name": "c",
          "type": "bytes1"
        }
      ],
      "stateMutability": "pure",
      "type": "function"
    },
    {
      "inputs": [
        {
          "internalType": "bytes",
          "name": "",
          "type": "bytes"
        }
      ],
      "name": "checkUpkeep",
      "outputs": [
        {
          "internalType": "bool",
          "name": "upkeepNeeded",
          "type": "bool"
        },
        {
          "internalType": "bytes",
          "name": "performData",
          "type": "bytes"
        }
      ],
      "stateMutability": "view",
      "type": "function"
    },
    {
      "inputs": [
        {
          "internalType": "string",
          "name": "baseUri",
          "type": "string"
        },
        {
          "internalType": "uint256",
          "name": "minMembers",
          "type": "uint256"
        },
        {
          "internalType": "uint256",
          "name": "requestTime",
          "type": "uint256"
        },
        {
          "internalType": "uint256",
          "name": "validity",
          "type": "uint256"
        },
        {
          "internalType": "uint256",
          "name": "claimTime",
          "type": "uint256"
        },
        {
          "internalType": "uint256",
          "name": "judgingTime",
          "type": "uint256"
        },
        {
          "internalType": "uint256",
          "name": "judgesLength",
          "type": "uint256"
        },
        {
          "internalType": "uint256",
          "name": "amount",
          "type": "uint256"
        },
        {
          "internalType": "uint256",
          "name": "percentDivideIntoJudges",
          "type": "uint256"
        },
        {
          "internalType": "string",
          "name": "groupId",
          "type": "string"
        }
      ],
      "name": "createInsurance",
      "outputs": [
        {
          "internalType": "address",
          "name": "",
          "type": "address"
        }
      ],
      "stateMutability": "payable",
      "type": "function"
    },
    {
      "inputs": [
        {
          "internalType": "uint256",
          "name": "index",
          "type": "uint256"
        }
      ],
      "name": "getContract",
      "outputs": [
        {
          "components": [
            {
              "internalType": "address",
              "name": "contractAddress",
              "type": "address"
            },
            {
              "internalType": "uint256",
              "name": "judgingStartTime",
              "type": "uint256"
            },
            {
              "internalType": "uint256",
              "name": "judgingEndTime",
              "type": "uint256"
            }
          ],
          "internalType": "struct DesuranceHandle.ContractInfo",
          "name": "",
          "type": "tuple"
        }
      ],
      "stateMutability": "view",
      "type": "function"
    },
    {
      "inputs": [],
      "name": "getContracts",
      "outputs": [
        {
          "components": [
            {
              "internalType": "address",
              "name": "contractAddress",
              "type": "address"
            },
            {
              "internalType": "uint256",
              "name": "judgingStartTime",
              "type": "uint256"
            },
            {
              "internalType": "uint256",
              "name": "judgingEndTime",
              "type": "uint256"
            }
          ],
          "internalType": "struct DesuranceHandle.ContractInfo[]",
          "name": "",
          "type": "tuple[]"
        }
      ],
      "stateMutability": "view",
      "type": "function"
    },
    {
      "inputs": [],
      "name": "getContractsLength",
      "outputs": [
        {
          "internalType": "uint256",
          "name": "",
          "type": "uint256"
        }
      ],
      "stateMutability": "view",
      "type": "function"
    },
    {
      "inputs": [
        {
          "internalType": "address",
          "name": "contractAddress",
          "type": "address"
        }
      ],
      "name": "getRandomNumbers",
      "outputs": [
        {
          "internalType": "uint256",
          "name": "requestId",
          "type": "uint256"
        }
      ],
      "stateMutability": "payable",
      "type": "function"
    },
    {
      "inputs": [
        {
          "internalType": "bytes",
          "name": "performData",
          "type": "bytes"
        }
      ],
      "name": "performUpkeep",
      "outputs": [],
      "stateMutability": "nonpayable",
      "type": "function"
    },
    {
      "inputs": [
        {
          "internalType": "uint256",
          "name": "requestId",
          "type": "uint256"
        },
        {
          "internalType": "uint256[]",
          "name": "randomWords",
          "type": "uint256[]"
        }
      ],
      "name": "rawFulfillRandomWords",
      "outputs": [],
      "stateMutability": "nonpayable",
      "type": "function"
    }
  ],
  "transactionHash": "0x43eed1a9c4bebf4d83868e985bc0d76d8cf4b3870965c261e3ef35278803a00a",
  "args": [
    "0x7a1BaC17Ccc5b313516C5E16fb24f7659aA5ebed",
    "1919",
    "0x4b09e658ed251bcafeebbc69400383d49f344ace09b9576fe248bb02c003fe9f",
    "500000"
  ],
  "numDeployments": 6,
  "solcInputHash": "ca98a686a6ecf639bc0abcc4083db434",
  "bytecode": "0x61012060405234801561001157600080fd5b50604051614e33380380614e3383398101604081905261003091610061565b6001600160a01b03909316608081905260a05260e0526001600160401b031660c05263ffffffff16610100526100d7565b6000806000806080858703121561007757600080fd5b84516001600160a01b038116811461008e57600080fd5b60208601519094506001600160401b03811681146100ab57600080fd5b60408601516060870151919450925063ffffffff811681146100cc57600080fd5b939692955090935050565b60805160a05160c05160e05161010051614d1161012260003960006109930152600061093201526000610960015260006109c401526000818161025c015261029f0152614d116000f3fe6080604052600436106200008c5760003560e01c80631fe543e314620000915780634585e33b14620000b857806369f9ad2f14620000dd5780636e04ff0d14620001205780636ebc8c86146200015557806388e9a48a1462000189578063a0ce2a6914620001bd578063ba6731c014620001ed578063c3a2a93a1462000213578063fccc134f146200023a575b600080fd5b3480156200009e57600080fd5b50620000b6620000b036600462000bde565b62000251565b005b348015620000c557600080fd5b50620000b6620000d736600462000c9a565b620002e0565b348015620000ea57600080fd5b5062000102620000fc36600462000d10565b620003f8565b6040516001600160f81b031990911681526020015b60405180910390f35b3480156200012d57600080fd5b50620001456200013f36600462000c9a565b62000433565b6040516200011792919062000da4565b3480156200016257600080fd5b506200017a6200017436600462000dc9565b620005b0565b60405162000117919062000e05565b3480156200019657600080fd5b50620001ae620001a836600462000e1b565b6200063d565b60405162000117919062000e46565b620001d4620001ce36600462000ed1565b620007ca565b6040516001600160a01b03909116815260200162000117565b62000204620001fe36600462000e1b565b62000923565b60405190815260200162000117565b3480156200022057600080fd5b506200022b62000a6d565b60405162000117919062000f8a565b3480156200024757600080fd5b5060015462000204565b336001600160a01b037f00000000000000000000000000000000000000000000000000000000000000001614620002d05760405163073e64fd60e21b81523360048201526001600160a01b037f000000000000000000000000000000000000000000000000000000000000000016602482015260440160405180910390fd5b620002dc828262000af1565b5050565b600080620002f18385018562000fdc565b915091506000600183815481106200030d576200030d62000fff565b60009182526020909120600390910201546001600160a01b03169050816200036f5760006001848154811062000347576200034762000fff565b906000526020600020906003020160010181905550620003678162000923565b505050505050565b60006001848154811062000387576200038762000fff565b906000526020600020906003020160020181905550806001600160a01b0316632ddfd9286040518163ffffffff1660e01b8152600401600060405180830381600087803b158015620003d857600080fd5b505af1158015620003ed573d6000803e3d6000fd5b505050505050505050565b6000600a60f883901c101562000422576200041960f883901c60306200102b565b60f81b92915050565b6200041960f883901c60576200102b565b60006060815b600154811015620005a857600181815481106200045a576200045a62000fff565b906000526020600020906003020160010154600014158015620004a3575042600182815481106200048f576200048f62000fff565b906000526020600020906003020160010154105b8015620004d657504260018281548110620004c257620004c262000fff565b906000526020600020906003020160020154115b156200050f576040805160208101839052600091810191909152600193506060015b6040516020818303038152906040529150620005a8565b6001818154811062000525576200052562000fff565b9060005260206000209060030201600201546000141580156200056e575042600182815481106200055a576200055a62000fff565b906000526020600020906003020160020154105b15620005935760408051602081018390526001918101829052909350606001620004f8565b806200059f8162001053565b91505062000439565b509250929050565b620005de604051806060016040528060006001600160a01b0316815260200160008152602001600081525090565b60018281548110620005f457620005f462000fff565b600091825260209182902060408051606081018252600390930290910180546001600160a01b031683526001810154938301939093526002909201549181019190915292915050565b60408051602880825260608281019093526000919060208201818036833701905050905060005b60148110156200079f5760006200067d82601362001071565b6200068a9060086200108b565b62000697906002620011a2565b620006ac906001600160a01b038716620011c6565b60f81b9050600060108260f81c620006c59190620011dd565b60f81b905060008160f81c6010620006de919062001202565b8360f81c620006ee919062001226565b60f81b9050620006fe82620003f8565b856200070c8660026200108b565b815181106200071f576200071f62000fff565b60200101906001600160f81b031916908160001a9053506200074181620003f8565b856200074f8660026200108b565b6200075c9060016200124c565b815181106200076f576200076f62000fff565b60200101906001600160f81b031916908160001a9053505050508080620007969062001053565b91505062000664565b5080604051602001620007b3919062001267565b604051602081830303815290604052915050919050565b6000808b8b8b8b8b8b8b8b8b8b604051620007e59062000b87565b620007fa9a9998979695949392919062001293565b604051809103906000f08015801562000817573d6000803e3d6000fd5b5090506000888a6200082a8d426200124c565b6200083691906200124c565b6200084291906200124c565b905060006200085289836200124c565b604080516060810182526001600160a01b0386811682526020820195865291810192835260018054808201825560009190915290517fb10e2d527612073b26eecdfd717e6a320cf44b4afac2b0732d9fcbe2b7fa0cf6600390920291820180546001600160a01b031916919093161790915592517fb10e2d527612073b26eecdfd717e6a320cf44b4afac2b0732d9fcbe2b7fa0cf7840155517fb10e2d527612073b26eecdfd717e6a320cf44b4afac2b0732d9fcbe2b7fa0cf890920191909155509b9a5050505050505050505050565b6040516305d3b1d360e41b81527f000000000000000000000000000000000000000000000000000000000000000060048201526001600160401b037f00000000000000000000000000000000000000000000000000000000000000001660248201526003604482015263ffffffff7f0000000000000000000000000000000000000000000000000000000000000000166064820152600160848201526000907f00000000000000000000000000000000000000000000000000000000000000006001600160a01b031690635d3b1d309060a4016020604051808303816000875af115801562000a16573d6000803e3d6000fd5b505050506040513d601f19601f8201168201806040525081019062000a3c919062001302565b600081815260208190526040902080546001600160a01b0319166001600160a01b0394909416939093179092555090565b60606001805480602002602001604051908101604052809291908181526020016000905b8282101562000ae8576000848152602090819020604080516060810182526003860290920180546001600160a01b031683526001808201548486015260029091015491830191909152908352909201910162000a91565b50505050905090565b60008281526020819052604081205482516001600160a01b03909116918291631a9d787991859162000b275762000b2762000fff565b60200260200101516040518263ffffffff1660e01b815260040162000b4e91815260200190565b600060405180830381600087803b15801562000b6957600080fd5b505af115801562000b7e573d6000803e3d6000fd5b50505050505050565b6139bf806200131d83390190565b634e487b7160e01b600052604160045260246000fd5b604051601f8201601f191681016001600160401b038111828210171562000bd65762000bd662000b95565b604052919050565b6000806040838503121562000bf257600080fd5b823591506020808401356001600160401b038082111562000c1257600080fd5b818601915086601f83011262000c2757600080fd5b81358181111562000c3c5762000c3c62000b95565b8060051b915062000c4f84830162000bab565b818152918301840191848101908984111562000c6a57600080fd5b938501935b8385101562000c8a5784358252938501939085019062000c6f565b8096505050505050509250929050565b6000806020838503121562000cae57600080fd5b82356001600160401b038082111562000cc657600080fd5b818501915085601f83011262000cdb57600080fd5b81358181111562000ceb57600080fd5b86602082850101111562000cfe57600080fd5b60209290920196919550909350505050565b60006020828403121562000d2357600080fd5b81356001600160f81b03198116811462000d3c57600080fd5b9392505050565b60005b8381101562000d6057818101518382015260200162000d46565b8381111562000d70576000848401525b50505050565b6000815180845262000d9081602086016020860162000d43565b601f01601f19169290920160200192915050565b821515815260406020820152600062000dc1604083018462000d76565b949350505050565b60006020828403121562000ddc57600080fd5b5035919050565b80516001600160a01b0316825260208082015190830152604090810151910152565b6060810162000e15828462000de3565b92915050565b60006020828403121562000e2e57600080fd5b81356001600160a01b038116811462000d3c57600080fd5b60208152600062000d3c602083018462000d76565b600082601f83011262000e6d57600080fd5b81356001600160401b0381111562000e895762000e8962000b95565b62000e9e601f8201601f191660200162000bab565b81815284602083860101111562000eb457600080fd5b816020850160208301376000918101602001919091529392505050565b6000806000806000806000806000806101408b8d03121562000ef257600080fd5b8a356001600160401b038082111562000f0a57600080fd5b62000f188e838f0162000e5b565b9b5060208d01359a5060408d0135995060608d0135985060808d0135975060a08d0135965060c08d0135955060e08d013594506101008d013593506101208d013591508082111562000f6957600080fd5b5062000f788d828e0162000e5b565b9150509295989b9194979a5092959850565b6020808252825182820181905260009190848201906040850190845b8181101562000fd05762000fbc83855162000de3565b928401926060929092019160010162000fa6565b50909695505050505050565b6000806040838503121562000ff057600080fd5b50508035926020909101359150565b634e487b7160e01b600052603260045260246000fd5b634e487b7160e01b600052601160045260246000fd5b600060ff821660ff84168060ff038211156200104b576200104b62001015565b019392505050565b60006000198214156200106a576200106a62001015565b5060010190565b60008282101562001086576200108662001015565b500390565b6000816000190483118215151615620010a857620010a862001015565b500290565b600181815b80851115620005a8578160001904821115620010d257620010d262001015565b80851615620010e057918102915b93841c9390800290620010b2565b600082620010ff5750600162000e15565b816200110e5750600062000e15565b8160018114620011275760028114620011325762001152565b600191505062000e15565b60ff84111562001146576200114662001015565b50506001821b62000e15565b5060208310610133831016604e8410600b841016171562001177575081810a62000e15565b620011838383620010ad565b80600019048211156200119a576200119a62001015565b029392505050565b600062000d3c8383620010ee565b634e487b7160e01b600052601260045260246000fd5b600082620011d857620011d8620011b0565b500490565b600060ff831680620011f357620011f3620011b0565b8060ff84160491505092915050565b600060ff821660ff84168160ff04811182151516156200119a576200119a62001015565b600060ff821660ff84168082101562001243576200124362001015565b90039392505050565b6000821982111562001262576200126262001015565b500190565b61060f60f31b8152600082516200128681600285016020870162000d43565b9190910160020192915050565b6000610140808352620012a98184018e62000d76565b90508b60208401528a60408401528960608401528860808401528760a08401528660c08401528560e084015284610100840152828103610120840152620012f1818562000d76565b9d9c50505050505050505050505050565b6000602082840312156200131557600080fd5b505191905056fe61018060405260016007556001600a556001600e553480156200002157600080fd5b50604051620039bf380380620039bf8339810160408190526200004491620006da565b6200004f3362000517565b60008911620000bc5760405162461bcd60e51b815260206004820152602e60248201527f4465737572616e63653a206d696e4d656d626572732073686f756c642062652060448201526d067726561746572207468616e20360941b60648201526084015b60405180910390fd5b60008811620001265760405162461bcd60e51b815260206004820152602f60248201527f4465737572616e63653a207265717565737454696d652073686f756c6420626560448201526e02067726561746572207468616e203608c1b6064820152608401620000b3565b600087116200018d5760405162461bcd60e51b815260206004820152602c60248201527f4465737572616e63653a2076616c69646974792073686f756c6420626520677260448201526b06561746572207468616e20360a41b6064820152608401620000b3565b60008611620002055760405162461bcd60e51b815260206004820152603460248201527f4465737572616e63653a206a756467696e67537461727454696d652073686f7560448201527f6c642062652067726561746572207468616e20300000000000000000000000006064820152608401620000b3565b600085116200026f5760405162461bcd60e51b815260206004820152602f60248201527f4465737572616e63653a206a756467696e6754696d652073686f756c6420626560448201526e02067726561746572207468616e203608c1b6064820152608401620000b3565b60008411620002c95760405162461bcd60e51b815260206004820152603060248201526000805160206200397f83398151915260448201526f0652067726561746572207468616e20360841b6064820152608401620000b3565b888411156200033b5760405162461bcd60e51b815260206004820152604260248201526000805160206200397f83398151915260448201527f65206c657373207468616e206f7220657175616c20746f206d696e4d656d6265606482015261727360f01b608482015260a401620000b3565b60008311620003a05760405162461bcd60e51b815260206004820152602a60248201527f4465737572616e63653a20616d6f756e742073686f756c6420626520677265616044820152690746572207468616e20360b41b6064820152608401620000b3565b60008211620004075760405162461bcd60e51b815260206004820152603b60248201526000805160206200399f83398151915260448201527f65732073686f756c642062652067726561746572207468616e203000000000006064820152608401620000b3565b60648211156200047e5760405162461bcd60e51b815260206004820152604660248201526000805160206200399f83398151915260448201527f65732073686f756c64206265206c657373207468616e206f7220657175616c206064820152650746f203130360d41b608482015260a401620000b3565b8951620004939060019060208d019062000567565b506080899052620004a5884262000793565b60a0819052620004b790889062000793565b60c0819052620004c990879062000793565b60e0819052620004db90869062000793565b6101005261012084905261014083905261016082905280516200050690600290602084019062000567565b5050505050505050505050620007f7565b600080546001600160a01b038381166001600160a01b0319831681178455604051919092169283917f8be0079c531659141344cd1fd0a4f28419497f9722a3daafe3b4186f6b6457e09190a35050565b8280546200057590620007ba565b90600052602060002090601f016020900481019282620005995760008555620005e4565b82601f10620005b457805160ff1916838001178555620005e4565b82800160010185558215620005e4579182015b82811115620005e4578251825591602001919060010190620005c7565b50620005f2929150620005f6565b5090565b5b80821115620005f25760008155600101620005f7565b634e487b7160e01b600052604160045260246000fd5b600082601f8301126200063557600080fd5b81516001600160401b03808211156200065257620006526200060d565b604051601f8301601f19908116603f011681019082821181831017156200067d576200067d6200060d565b816040528381526020925086838588010111156200069a57600080fd5b600091505b83821015620006be57858201830151818301840152908201906200069f565b83821115620006d05760008385830101525b9695505050505050565b6000806000806000806000806000806101408b8d031215620006fb57600080fd5b8a516001600160401b03808211156200071357600080fd5b620007218e838f0162000623565b9b5060208d01519a5060408d0151995060608d0151985060808d0151975060a08d0151965060c08d0151955060e08d015194506101008d015193506101208d01519150808211156200077257600080fd5b50620007818d828e0162000623565b9150509295989b9194979a5092959850565b60008219821115620007b557634e487b7160e01b600052601160045260246000fd5b500190565b600181811c90821680620007cf57607f821691505b60208210811415620007f157634e487b7160e01b600052602260045260246000fd5b50919050565b60805160a05160c05160e0516101005161012051610140516101605161307a620009056000396000818161071d01526113770152600081816107f201528181610b6401528181610e22015281816111010152818161127e01528181611343015281816113d70152611c8001526000818161030801528181610bde015281816111580152818161125d01526114e901526000818161051001528181610a5101528181610fd801526123f801526000818161037201528181610a090152818161221101526123b901526000818161046501526121a20152600081816103a501528181610d5f01528181611a940152611ceb01526000818161065201528181610aeb0152612876015261307a6000f3fe6080604052600436106102235760003560e01c8063071694fb146102285780630a4b51621461025d5780630cac36b2146102a157806313284cdd146102c3578063134fe304146102f957806316daa23b1461032c5780631a9d7879146103415780631e1e949914610363578063201095b71461039657806321e3ca5d146103c9578063253ecfcf146103de57806326757b73146104145780632ddfd928146104415780633b7f7cfa146104565780633ccfd60b146104895780633e035c781461049e5780633f952091146104ec5780634340b213146105015780634c6ee382146105345780635ee8906d1461054757806365b21d141461055c5780636f80886c14610589578063715018a6146105bf5780637248f579146105d457806379ee10b0146105f65780637d4b1a5f1461060e5780638170aff0146106235780638618e9d3146106435780638c9a92a2146106765780638da5cb5b1461068e5780638f180305146106a3578063a095f2b4146106b8578063b0118f4a14610676578063b035d6e1146106d8578063b7e44ba41461070e578063bfbdef7e14610741578063c4677c0414610756578063c864b70e1461076b578063cf1dd2b41461078b578063cfdd1ce3146107ad578063d321fe29146107e3578063e12c2d9114610816578063e1aac42014610843578063e57384db14610858578063ed3ee1de14610875578063f0e22d521461088a578063f2fde38b1461089f578063f8b2cb4f146108bf575b600080fd5b34801561023457600080fd5b50610248610243366004612a73565b6108f5565b60405190151581526020015b60405180910390f35b34801561026957600080fd5b50610293610278366004612a95565b6001600160a01b031660009081526014602052604090205490565b604051908152602001610254565b3480156102ad57600080fd5b506102b6610957565b6040516102549190612b1d565b3480156102cf57600080fd5b506102936102de366004612a95565b6001600160a01b031660009081526011602052604090205490565b34801561030557600080fd5b507f0000000000000000000000000000000000000000000000000000000000000000610293565b34801561033857600080fd5b506102936109e9565b34801561034d57600080fd5b5061036161035c366004612b30565b6109ff565b005b34801561036f57600080fd5b507f0000000000000000000000000000000000000000000000000000000000000000610293565b3480156103a257600080fd5b507f0000000000000000000000000000000000000000000000000000000000000000610293565b3480156103d557600080fd5b50610361610d14565b3480156103ea57600080fd5b506102936103f9366004612a95565b6001600160a01b03166000908152600f602052604090205490565b34801561042057600080fd5b5061043461042f366004612b30565b610eda565b6040516102549190612b49565b34801561044d57600080fd5b50610361610fd6565b34801561046257600080fd5b507f0000000000000000000000000000000000000000000000000000000000000000610293565b34801561049557600080fd5b506103616119cd565b3480156104aa57600080fd5b506104d46104b9366004612b30565b6000908152601260205260409020546001600160a01b031690565b6040516001600160a01b039091168152602001610254565b3480156104f857600080fd5b50610361611a92565b34801561050d57600080fd5b507f0000000000000000000000000000000000000000000000000000000000000000610293565b610361610542366004612c2f565b611c7e565b34801561055357600080fd5b50601654610293565b34801561056857600080fd5b5061057c610577366004612b30565b611e5c565b6040516102549190612c6b565b34801561059557600080fd5b506104d46105a4366004612b30565b6000908152600860205260409020546001600160a01b031690565b3480156105cb57600080fd5b50610361611f69565b3480156105e057600080fd5b506105e9611f7d565b6040516102549190612cb9565b34801561060257600080fd5b5060065460ff16610248565b34801561061a57600080fd5b50600554610293565b34801561062f57600080fd5b5061036161063e366004612b30565b611ff0565b34801561064f57600080fd5b507f0000000000000000000000000000000000000000000000000000000000000000610293565b34801561068257600080fd5b5060035460ff16610248565b34801561069a57600080fd5b506104d4612180565b3480156106af57600080fd5b5061029361218f565b3480156106c457600080fd5b506103616106d3366004612d10565b6121a0565b3480156106e457600080fd5b506102936106f3366004612a95565b6001600160a01b03166000908152600b602052604090205490565b34801561071a57600080fd5b507f0000000000000000000000000000000000000000000000000000000000000000610293565b34801561074d57600080fd5b50600454610293565b34801561076257600080fd5b50601554610293565b34801561077757600080fd5b50610361610786366004612d54565b6123b7565b34801561079757600080fd5b506107a06126dd565b6040516102549190612db1565b3480156107b957600080fd5b506102936107c8366004612a95565b6001600160a01b031660009081526009602052604090205490565b3480156107ef57600080fd5b507f0000000000000000000000000000000000000000000000000000000000000000610293565b34801561082257600080fd5b50610836610831366004612a73565b612746565b6040516102549190612dfb565b34801561084f57600080fd5b506102b6612863565b34801561086457600080fd5b50600354610100900460ff16610248565b34801561088157600080fd5b50610248612872565b34801561089657600080fd5b506102936128a4565b3480156108ab57600080fd5b506103616108ba366004612a95565b6128b5565b3480156108cb57600080fd5b506102936108da366004612a95565b6001600160a01b031660009081526017602052604090205490565b6000828152600860209081526040808320549051600d92610922926001600160a01b031691869101612e22565b60408051601f198184030181529082905261093c91612e3b565b9081526040519081900360200190205460ff16905092915050565b60606001805461096690612e57565b80601f016020809104026020016040519081016040528092919081815260200182805461099290612e57565b80156109df5780601f106109b4576101008083540402835291602001916109df565b820191906000526020600020905b8154815290600101906020018083116109c257829003601f168201915b5050505050905090565b60006001600e546109fa9190612ea8565b905090565b610a0761292b565b7f00000000000000000000000000000000000000000000000000000000000000004211610a4f5760405162461bcd60e51b8152600401610a4690612ebf565b60405180910390fd5b7f00000000000000000000000000000000000000000000000000000000000000004210610a8e5760405162461bcd60e51b8152600401610a4690612ef0565b60035460ff1615610adb5760405162461bcd60e51b8152602060048201526017602482015276129d5919d95cc8185b1c9958591e481cd95b1958dd1959604a1b6044820152606401610a46565b60035460ff16158015610b1b57507f00000000000000000000000000000000000000000000000000000000000000006001600754610b199190612ea8565b105b15610bac576003805461ffff191660019081179091555b600754811015610ba8576000818152600860209081526040808320546001600160a01b031683526017909152812080547f00000000000000000000000000000000000000000000000000000000000000009290610b90908490612f1f565b90915550819050610ba081612f37565b915050610b32565b5050565b6003805461ffff1916610101179055600754600090610bcd90600190612ea8565b610bd79083612f68565b905060015b7f00000000000000000000000000000000000000000000000000000000000000008111610d0e576000600881610c128486612f1f565b815260208082019290925260409081016000908120546001600160a01b03168082526011909352205490915015610c915781610c4d81612f7c565b9250506001600754610c5f9190612ea8565b82610c6a8580612f1f565b610c749190612f1f565b610c7f906001612f1f565b610c899190612f68565b925050610cfc565b6001600754610ca09190612ea8565b82610cab8580612f1f565b610cb59190612f1f565b610cbf9190612f68565b6001600160a01b0390911660008181526011602090815260408083208690558583526012909152902080546001600160a01b031916909117905591505b80610d0681612f37565b915050610bdc565b50505b50565b336000908152600b6020526040902054610d5d5760405162461bcd60e51b815260206004820152600a602482015269139bc81c995c5d595cdd60b21b6044820152606401610a46565b7f00000000000000000000000000000000000000000000000000000000000000004211610dc15760405162461bcd60e51b8152602060048201526012602482015271151a5b59481a5cc81cdd1a5b1b081b19599d60721b6044820152606401610a46565b336000908152600b6020908152604080832054815160608101835284815282518085018452858152818501908152818401869052828652600c855292909420845181546001600160a01b0319166001600160a01b03909116178155915180517f0000000000000000000000000000000000000000000000000000000000000000959294929392610e589260018501929101906129da565b5060409182015160029190910155336000818152600b602052828120819055915184908381818185875af1925050503d8060008114610eb3576040519150601f19603f3d011682016040523d82523d6000602084013e610eb8565b606091505b5050905080610d0e57604051631d42c86760e21b815260040160405180910390fd5b610f07604051806060016040528060006001600160a01b0316815260200160608152602001600081525090565b6000828152600c602090815260409182902082516060810190935280546001600160a01b031683526001810180549192840191610f4390612e57565b80601f0160208091040260200160405190810160405280929190818152602001828054610f6f90612e57565b8015610fbc5780601f10610f9157610100808354040283529160200191610fbc565b820191906000526020600020905b815481529060010190602001808311610f9f57829003601f168201915b505050505081526020016002820154815250509050919050565b7f0000000000000000000000000000000000000000000000000000000000000000421161103d5760405162461bcd60e51b8152602060048201526015602482015274129d5919da5b99c81b9bdd08195b991959081e595d605a1b6044820152606401610a46565b60065460ff16156110855760405162461bcd60e51b8152602060048201526012602482015271105b1c9958591e48199d5b1b199a5b1b195960721b6044820152606401610a46565b60035460ff16801561109f5750600354610100900460ff16155b156110b3576006805460ff19166001179055565b60035460ff16611145576003805461ffff191660019081179091555b600754811015610d11576000818152600860209081526040808320546001600160a01b031683526017909152812080547f0000000000000000000000000000000000000000000000000000000000000000929061112d908490612f1f565b9091555081905061113d81612f37565b9150506110cf565b6006805460ff191660019081179091555b7f0000000000000000000000000000000000000000000000000000000000000000811161123f576001600e5461118c9190612ea8565b6000828152601260209081526040808320546001600160a01b031683526014909152902054141561122d576040805180820190915281815260006020820181815260158054600181018255925291517f55f448fdea98c4d29eb340757ef0a66cd03dbb9538908a6a81d96026b71ec47560029092029182015590517f55f448fdea98c4d29eb340757ef0a66cd03dbb9538908a6a81d96026b71ec476909101555b8061123781612f37565b915050611156565b5060155461133057600060016007546112589190612ea8565b6112a27f00000000000000000000000000000000000000000000000000000000000000007f0000000000000000000000000000000000000000000000000000000000000000612f1f565b6112ac9190612f93565b905060015b600754811015610ba8576000818152600860209081526040808320546001600160a01b03168352601190915290205461131e576000818152600860209081526040808320546001600160a01b03168352601790915281208054849290611318908490612f1f565b90915550505b8061132881612f37565b9150506112b1565b601554600090611341906064612fa7565b7f000000000000000000000000000000000000000000000000000000000000000060016007546113719190612ea8565b61139b907f0000000000000000000000000000000000000000000000000000000000000000612fa7565b6113a59190612fa7565b6113af9190612f93565b6015549091506000906113c29083612fa7565b60016007546113d19190612ea8565b6113fb907f0000000000000000000000000000000000000000000000000000000000000000612fa7565b6114059190612ea8565b905060005b6015548110156114d457826015828154811061142857611428612fc6565b9060005260206000209060020201600101819055508260176000601260006015868154811061145957611459612fc6565b906000526020600020906002020160000154815260200190815260200160002060009054906101000a90046001600160a01b03166001600160a01b03166001600160a01b0316815260200190815260200160002060008282546114bc9190612f1f565b909155508190506114cc81612f37565b91505061140a565b5060015b600e548110156115d75761150d60027f0000000000000000000000000000000000000000000000000000000000000000612f93565b60008281526010602052604090206003015411156115c557600081815260106020526040812060020154600580549192909161154a908490612f1f565b90915550506040805180820190915281815260006020820181815260168054600181018255925291517fd833147d7dc355ba459fc788f669e58cfaf9dc25ddcd0702e87d69c7b512428960029092029182015590517fd833147d7dc355ba459fc788f669e58cfaf9dc25ddcd0702e87d69c7b512428a909101555b806115cf81612f37565b9150506114d8565b5060165461172957600060016007546115f09190612ea8565b6115fa9083612f93565b905060005b6015548110156116a0578160176000601260006015868154811061162557611625612fc6565b906000526020600020906002020160000154815260200190815260200160002060009054906101000a90046001600160a01b03166001600160a01b03166001600160a01b0316815260200190815260200160002060008282546116889190612f1f565b9091555081905061169881612f37565b9150506115ff565b5060015b600754811015611723576000818152600860209081526040808320546001600160a01b031683526011909152902054611711576000818152600860209081526040808320546001600160a01b0316835260179091528120805484929061170b908490612f1f565b90915550505b8061171b81612f37565b9150506116a4565b50505050565b6000816005541061174d57816005546117429190612ea8565b90506000915061175d565b60055461175a9083612ea8565b91505b60005b60165481101561187b576000601060006016848154811061178357611783612fc6565b9060005260206000209060020201600001548152602001908152602001600020600201549050600060055484836117ba9190612fa7565b6117c49190612f93565b6117ce9083612ea8565b905080601684815481106117e4576117e4612fc6565b9060005260206000209060020201600101819055508060176000601060006016888154811061181557611815612fc6565b6000918252602080832060029092029091015483528281019390935260409182018120546001600160a01b031684529183019390935291018120805490919061185f908490612f1f565b925050819055505050808061187390612f37565b915050611760565b508115610d0e57600060016007546118939190612ea8565b61189d9084612f93565b905060005b60155481101561194357816017600060126000601586815481106118c8576118c8612fc6565b906000526020600020906002020160000154815260200190815260200160002060009054906101000a90046001600160a01b03166001600160a01b03166001600160a01b03168152602001908152602001600020600082825461192b9190612f1f565b9091555081905061193b81612f37565b9150506118a2565b5060015b6007548110156119c6576000818152600860209081526040808320546001600160a01b0316835260119091529020546119b4576000818152600860209081526040808320546001600160a01b031683526017909152812080548492906119ae908490612f1f565b90915550505b806119be81612f37565b915050611947565b5050505050565b33600090815260176020526040902054611a165760405162461bcd60e51b815260206004820152600a6024820152694e6f2062616c616e636560b01b6044820152606401610a46565b33600081815260176020526040808220805490839055905190929083908381818185875af1925050503d8060008114611a6b576040519150601f19603f3d011682016040523d82523d6000602084013e611a70565b606091505b5050905080610ba857604051631d42c86760e21b815260040160405180910390fd5b7f00000000000000000000000000000000000000000000000000000000000000004210611ad15760405162461bcd60e51b8152600401610a4690612fdc565b3360009081526009602052604090205415611b215760405162461bcd60e51b815260206004820152601060248201526f20b63932b0b23c90309036b2b6b132b960811b6044820152606401610a46565b6001600754611b309190612ea8565b336000908152600b60209081526040808320548352600c90915290206002015414611ba95760405162461bcd60e51b8152602060048201526024808201527f4e6f7420616c6c206d656d6265727320616363657074656420746865207265716044820152631d595cdd60e21b6064820152608401610a46565b336000908152600b6020908152604080832054815160608101835284815282518085018452858152818501908152818401869052828652600c855292909420845181546001600160a01b0319166001600160a01b0390911617815591518051919493611c1d926001850192909101906129da565b50604091820151600290910155336000818152600b60209081528382208290556007805483526008825284832080546001600160a01b0319168517905580549383526009909152928120829055909190611c7683612f37565b919050555050565b7f00000000000000000000000000000000000000000000000000000000000000003414611ce95760405162461bcd60e51b8152602060048201526019602482015278105b5bdd5b9d081cd95b9d081a5cdb89dd0818dbdc9c9958dd603a1b6044820152606401610a46565b7f00000000000000000000000000000000000000000000000000000000000000004210611d285760405162461bcd60e51b8152600401610a4690612fdc565b3360009081526009602052604090205415611d7d5760405162461bcd60e51b81526020600482015260156024820152744d656d62657220616c72656164792065786973747360581b6044820152606401610a46565b336000908152600b602052604090205415611dd35760405162461bcd60e51b81526020600482015260166024820152755265717565737420616c72656164792065786973747360501b6044820152606401610a46565b6040805160608101825233815260208082018481526000838501819052600a548152600c835293909320825181546001600160a01b0319166001600160a01b0390911617815592518051929392611e3092600185019201906129da565b50604091820151600290910155600a8054336000908152600b60205292832081905591611c7683612f37565b611e90604051806080016040528060006001600160a01b031681526020016060815260200160008152602001600081525090565b60008281526010602090815260409182902082516080810190935280546001600160a01b031683526001810180549192840191611ecc90612e57565b80601f0160208091040260200160405190810160405280929190818152602001828054611ef890612e57565b8015611f455780601f10611f1a57610100808354040283529160200191611f45565b820191906000526020600020905b815481529060010190602001808311611f2857829003601f168201915b50505050508152602001600282015481526020016003820154815250509050919050565b611f7161292b565b611f7b600061298a565b565b60606015805480602002602001604051908101604052809291908181526020016000905b82821015611fe757838290600052602060002090600202016040518060400160405290816000820154815260200160018201548152505081526020019060010190611fa1565b50505050905090565b3360009081526009602052604090205461201c5760405162461bcd60e51b8152600401610a469061301e565b6000818152600c60205260409020546001600160a01b03166120795760405162461bcd60e51b815260206004820152601660248201527514995c5d595cdd08191bd95cc81b9bdd08195e1a5cdd60521b6044820152606401610a46565b600d338260405160200161208e929190612e22565b60408051601f19818403018152908290526120a891612e3b565b9081526040519081900360200190205460ff16156120fb5760405162461bcd60e51b815260206004820152601060248201526f105b1c9958591e481858d8d95c1d195960821b6044820152606401610a46565b6001600d3383604051602001612112929190612e22565b60408051601f198184030181529082905261212c91612e3b565b908152602001604051809103902060006101000a81548160ff0219169083151502179055506001600c600083815260200190815260200160002060020160008282546121789190612f1f565b909155505050565b6000546001600160a01b031690565b600060016007546109fa9190612ea8565b7f0000000000000000000000000000000000000000000000000000000000000000421161220f5760405162461bcd60e51b815260206004820152601d60248201527f436f6e7472616374206973206e6f742076616c696420616e796d6f72650000006044820152606401610a46565b7f000000000000000000000000000000000000000000000000000000000000000042106122785760405162461bcd60e51b8152602060048201526017602482015276129d5919da5b99c8185b1c9958591e481cdd185c9d1959604a1b6044820152606401610a46565b336000908152600960205260409020546122a45760405162461bcd60e51b8152600401610a469061301e565b336000908152600f6020526040902054156122fc5760405162461bcd60e51b8152602060048201526018602482015277496e737572616e636520616c72656164792065786973747360401b6044820152606401610a46565b600e54336000818152600f6020908152604080832085905580516080810182529384528382018781528482018790526060850184905294835260108252909120825181546001600160a01b0319166001600160a01b039091161781559251805192939261236f92600185019201906129da565b50604082015181600201556060820151816003015590505080600460008282546123999190612f1f565b9091555050600e80549060006123ae83612f37565b91905055505050565b7f000000000000000000000000000000000000000000000000000000000000000042116123f65760405162461bcd60e51b8152600401610a4690612ebf565b7f000000000000000000000000000000000000000000000000000000000000000042106124355760405162461bcd60e51b8152600401610a4690612ef0565b3360009081526011602052604090205461247f5760405162461bcd60e51b815260206004820152600b60248201526a4e6f742061206a7564676560a81b6044820152606401610a46565b6000838152601060205260409020546001600160a01b03166124de5760405162461bcd60e51b8152602060048201526018602482015277125b9cdd5c985b98d948191bd95cc81b9bdd08195e1a5cdd60421b6044820152606401610a46565b601333846040516020016124f3929190612e22565b60408051601f198184030181529082905261250d91612e3b565b9081526040519081900360200190205460ff1615801561252d5750805115155b8061257b575060133384604051602001612548929190612e22565b60408051601f198184030181529082905261256291612e3b565b9081526040519081900360200190205460ff1615156001145b156125ba5760405162461bcd60e51b815260206004820152600f60248201526e105b1c9958591e481d5c19185d1959608a1b6044820152606401610a46565b816126035780516126035760405162461bcd60e51b8152602060048201526013602482015272526561736f6e2075726920697320656d70747960681b6044820152606401610a46565b60405180604001604052808315158152602001828152506013338560405160200161262f929190612e22565b60408051601f198184030181529082905261264991612e3b565b908152604051602091819003820190208251815460ff19169015151781558282015180519192612681926001850192909101906129da565b5090505081156126b35760008381526010602052604081206003018054600192906126ad908490612f1f565b90915550505b3360009081526014602052604081208054600192906126d3908490612f1f565b9091555050505050565b606060168054806020026020016040519081016040528092919081815260200160009082821015611fe757838290600052602060002090600202016040518060400160405290816000820154815260200160018201548152505081526020019060010190611fa1565b60408051808201909152600081526060602082015260008381526012602090815260409182902054915160139261278b926001600160a01b0390911691869101612e22565b60408051601f19818403018152908290526127a591612e3b565b908152604080519182900360209081018320838301909252815460ff1615158352600182018054918401916127d990612e57565b80601f016020809104026020016040519081016040528092919081815260200182805461280590612e57565b80156128525780601f1061282757610100808354040283529160200191612852565b820191906000526020600020905b81548152906001019060200180831161283557829003601f168201915b505050505081525050905092915050565b60606002805461096690612e57565b60007f000000000000000000000000000000000000000000000000000000000000000061289d61218f565b1015905090565b60006001600a546109fa9190612ea8565b6128bd61292b565b6001600160a01b0381166129225760405162461bcd60e51b815260206004820152602660248201527f4f776e61626c653a206e6577206f776e657220697320746865207a65726f206160448201526564647265737360d01b6064820152608401610a46565b610d118161298a565b33612934612180565b6001600160a01b031614611f7b5760405162461bcd60e51b815260206004820181905260248201527f4f776e61626c653a2063616c6c6572206973206e6f7420746865206f776e65726044820152606401610a46565b600080546001600160a01b038381166001600160a01b0319831681178455604051919092169283917f8be0079c531659141344cd1fd0a4f28419497f9722a3daafe3b4186f6b6457e09190a35050565b8280546129e690612e57565b90600052602060002090601f016020900481019282612a085760008555612a4e565b82601f10612a2157805160ff1916838001178555612a4e565b82800160010185558215612a4e579182015b82811115612a4e578251825591602001919060010190612a33565b50612a5a929150612a5e565b5090565b5b80821115612a5a5760008155600101612a5f565b60008060408385031215612a8657600080fd5b50508035926020909101359150565b600060208284031215612aa757600080fd5b81356001600160a01b0381168114612abe57600080fd5b9392505050565b60005b83811015612ae0578181015183820152602001612ac8565b838111156117235750506000910152565b60008151808452612b09816020860160208601612ac5565b601f01601f19169290920160200192915050565b602081526000612abe6020830184612af1565b600060208284031215612b4257600080fd5b5035919050565b602080825282516001600160a01b03168282015282015160606040830152600090612b776080840182612af1565b9050604084015160608401528091505092915050565b634e487b7160e01b600052604160045260246000fd5b600082601f830112612bb457600080fd5b81356001600160401b0380821115612bce57612bce612b8d565b604051601f8301601f19908116603f01168101908282118183101715612bf657612bf6612b8d565b81604052838152866020858801011115612c0f57600080fd5b836020870160208301376000602085830101528094505050505092915050565b600060208284031215612c4157600080fd5b81356001600160401b03811115612c5757600080fd5b612c6384828501612ba3565b949350505050565b602080825282516001600160a01b03168282015282015160806040830152600090612c9960a0840182612af1565b905060408401516060840152606084015160808401528091505092915050565b602080825282518282018190526000919060409081850190868401855b82811015612d0357612cf384835180518252602090810151910152565b9284019290850190600101612cd6565b5091979650505050505050565b60008060408385031215612d2357600080fd5b82356001600160401b03811115612d3957600080fd5b612d4585828601612ba3565b95602094909401359450505050565b600080600060608486031215612d6957600080fd5b8335925060208401358015158114612d8057600080fd5b915060408401356001600160401b03811115612d9b57600080fd5b612da786828701612ba3565b9150509250925092565b602080825282518282018190526000919060409081850190868401855b82811015612d0357612deb84835180518252602090810151910152565b9284019290850190600101612dce565b6020815281511515602082015260006020830151604080840152612c636060840182612af1565b6001600160a01b03929092168252602082015260400190565b60008251612e4d818460208701612ac5565b9190910192915050565b600181811c90821680612e6b57607f821691505b60208210811415612e8c57634e487b7160e01b600052602260045260246000fd5b50919050565b634e487b7160e01b600052601160045260246000fd5b600082821015612eba57612eba612e92565b500390565b602080825260179082015276129d5919da5b99c81b9bdd081cdd185c9d1959081e595d604a1b604082015260600190565b602080825260159082015274129d5919da5b99c8185b1c9958591e48195b991959605a1b604082015260600190565b60008219821115612f3257612f32612e92565b500190565b6000600019821415612f4b57612f4b612e92565b5060010190565b634e487b7160e01b600052601260045260246000fd5b600082612f7757612f77612f52565b500690565b600081612f8b57612f8b612e92565b506000190190565b600082612fa257612fa2612f52565b500490565b6000816000190483118215151615612fc157612fc1612e92565b500290565b634e487b7160e01b600052603260045260246000fd5b60208082526022908201527f416464696e67206d656d626572206973206e6f742076616c696420616e796d6f604082015261726560f01b606082015260800190565b6020808252600c908201526b2737ba10309036b2b6b132b960a11b60408201526060019056fea2646970667358221220958116eda50f6086e60ef23c9a04302fd2d91f247417adb74d2596fea3fb41f464736f6c634300080c00334465737572616e63653a206a75646765734c656e6774682073686f756c6420624465737572616e63653a2070657263656e74446976696465496e746f4a756467a2646970667358221220d56ab0435bac073fb420d0d43902a5cbb1bb4d238ca6722880378fae87645a8364736f6c634300080c0033",
  "devdoc": {
    "kind": "dev",
    "methods": {
      "performUpkeep(bytes)": {
        "details": "The input to this method should not be trusted, and the caller of the method should not even be restricted to any single registry. Anyone should be able call it, and the input should be validated, there is no guarantee that the data passed in is the performData returned from checkUpkeep. This could happen due to malicious keepers, racing keepers, or simply a state change while the performUpkeep transaction is waiting for confirmation. Always validate the data passed in.",
        "params": {
          "performData": "is the data which was passed back from the checkData simulation. If it is encoded, it can easily be decoded into other types by calling `abi.decode`. This data should not be trusted, and should be validated against the contract's current state."
        }
      }
    },
    "version": 1
  },
  "userdoc": {
    "kind": "user",
    "methods": {
      "performUpkeep(bytes)": {
        "notice": "method that is actually executed by the keepers, via the registry. The data returned by the checkUpkeep simulation will be passed into this method to actually be executed."
      }
    },
    "version": 1
  },
  "storageLayout": {
    "storage": [
      {
        "astId": 2189,
        "contract": "contracts/DesuranceHandle.sol:DesuranceHandle",
        "label": "s_requestIdToContractAddress",
        "offset": 0,
        "slot": "0",
        "type": "t_mapping(t_uint256,t_address)"
      },
      {
        "astId": 2193,
        "contract": "contracts/DesuranceHandle.sol:DesuranceHandle",
        "label": "s_contractInfos",
        "offset": 0,
        "slot": "1",
        "type": "t_array(t_struct(ContractInfo)2170_storage)dyn_storage"
      }
    ],
    "types": {
      "t_address": {
        "encoding": "inplace",
        "label": "address",
        "numberOfBytes": "20"
      },
      "t_array(t_struct(ContractInfo)2170_storage)dyn_storage": {
        "base": "t_struct(ContractInfo)2170_storage",
        "encoding": "dynamic_array",
        "label": "struct DesuranceHandle.ContractInfo[]",
        "numberOfBytes": "32"
      },
      "t_mapping(t_uint256,t_address)": {
        "encoding": "mapping",
        "key": "t_uint256",
        "label": "mapping(uint256 => address)",
        "numberOfBytes": "32",
        "value": "t_address"
      },
      "t_struct(ContractInfo)2170_storage": {
        "encoding": "inplace",
        "label": "struct DesuranceHandle.ContractInfo",
        "members": [
          {
            "astId": 2165,
            "contract": "contracts/DesuranceHandle.sol:DesuranceHandle",
            "label": "contractAddress",
            "offset": 0,
            "slot": "0",
            "type": "t_address"
          },
          {
            "astId": 2167,
            "contract": "contracts/DesuranceHandle.sol:DesuranceHandle",
            "label": "judgingStartTime",
            "offset": 0,
            "slot": "1",
            "type": "t_uint256"
          },
          {
            "astId": 2169,
            "contract": "contracts/DesuranceHandle.sol:DesuranceHandle",
            "label": "judgingEndTime",
            "offset": 0,
            "slot": "2",
            "type": "t_uint256"
          }
        ],
        "numberOfBytes": "96"
      },
      "t_uint256": {
        "encoding": "inplace",
        "label": "uint256",
        "numberOfBytes": "32"
      }
    }
  }
}